{
  "abi": [
    {
      "type": "constructor",
      "inputs": [
        {
          "name": "_walletImpl",
          "type": "address",
          "internalType": "address"
        },
        {
          "name": "_entryPoint",
          "type": "address",
          "internalType": "address"
        },
        {
          "name": "_owner",
          "type": "address",
          "internalType": "address"
        }
      ],
      "stateMutability": "nonpayable"
    },
    {
      "type": "function",
      "name": "VERSION",
      "inputs": [],
      "outputs": [
        {
          "name": "",
          "type": "string",
          "internalType": "string"
        }
      ],
      "stateMutability": "view"
    },
    {
      "type": "function",
      "name": "_WALLETIMPL",
      "inputs": [],
      "outputs": [
        {
          "name": "",
          "type": "address",
          "internalType": "address"
        }
      ],
      "stateMutability": "view"
    },
    {
      "type": "function",
      "name": "addStake",
      "inputs": [
        {
          "name": "unstakeDelaySec",
          "type": "uint32",
          "internalType": "uint32"
        }
      ],
      "outputs": [],
      "stateMutability": "payable"
    },
    {
      "type": "function",
      "name": "createWallet",
      "inputs": [
        {
          "name": "_initializer",
          "type": "bytes",
          "internalType": "bytes"
        },
        {
          "name": "_salt",
          "type": "bytes32",
          "internalType": "bytes32"
        }
      ],
      "outputs": [
        {
          "name": "proxy",
          "type": "address",
          "internalType": "address"
        }
      ],
      "stateMutability": "nonpayable"
    },
    {
      "type": "function",
      "name": "deposit",
      "inputs": [],
      "outputs": [],
      "stateMutability": "payable"
    },
    {
      "type": "function",
      "name": "entryPoint",
      "inputs": [],
      "outputs": [
        {
          "name": "",
          "type": "address",
          "internalType": "contract IEntryPoint"
        }
      ],
      "stateMutability": "view"
    },
    {
      "type": "function",
      "name": "getWalletAddress",
      "inputs": [
        {
          "name": "_initializer",
          "type": "bytes",
          "internalType": "bytes"
        },
        {
          "name": "_salt",
          "type": "bytes32",
          "internalType": "bytes32"
        }
      ],
      "outputs": [
        {
          "name": "proxy",
          "type": "address",
          "internalType": "address"
        }
      ],
      "stateMutability": "view"
    },
    {
      "type": "function",
      "name": "owner",
      "inputs": [],
      "outputs": [
        {
          "name": "",
          "type": "address",
          "internalType": "address"
        }
      ],
      "stateMutability": "view"
    },
    {
      "type": "function",
      "name": "proxyCode",
      "inputs": [],
      "outputs": [
        {
          "name": "",
          "type": "bytes",
          "internalType": "bytes"
        }
      ],
      "stateMutability": "view"
    },
    {
      "type": "function",
      "name": "renounceOwnership",
      "inputs": [],
      "outputs": [],
      "stateMutability": "nonpayable"
    },
    {
      "type": "function",
      "name": "transferOwnership",
      "inputs": [
        {
          "name": "newOwner",
          "type": "address",
          "internalType": "address"
        }
      ],
      "outputs": [],
      "stateMutability": "nonpayable"
    },
    {
      "type": "function",
      "name": "unlockStake",
      "inputs": [],
      "outputs": [],
      "stateMutability": "nonpayable"
    },
    {
      "type": "function",
      "name": "withdrawStake",
      "inputs": [
        {
          "name": "withdrawAddress",
          "type": "address",
          "internalType": "address payable"
        }
      ],
      "outputs": [],
      "stateMutability": "nonpayable"
    },
    {
      "type": "function",
      "name": "withdrawTo",
      "inputs": [
        {
          "name": "withdrawAddress",
          "type": "address",
          "internalType": "address payable"
        },
        {
          "name": "amount",
          "type": "uint256",
          "internalType": "uint256"
        }
      ],
      "outputs": [],
      "stateMutability": "nonpayable"
    },
    {
      "type": "event",
      "name": "OwnershipTransferred",
      "inputs": [
        {
          "name": "previousOwner",
          "type": "address",
          "indexed": true,
          "internalType": "address"
        },
        {
          "name": "newOwner",
          "type": "address",
          "indexed": true,
          "internalType": "address"
        }
      ],
      "anonymous": false
    },
    {
      "type": "event",
      "name": "SoulWalletCreation",
      "inputs": [
        {
          "name": "proxy",
          "type": "address",
          "indexed": true,
          "internalType": "address"
        }
      ],
      "anonymous": false
    },
    {
      "type": "error",
      "name": "OwnableInvalidOwner",
      "inputs": [
        {
          "name": "owner",
          "type": "address",
          "internalType": "address"
        }
      ]
    },
    {
      "type": "error",
      "name": "OwnableUnauthorizedAccount",
      "inputs": [
        {
          "name": "account",
          "type": "address",
          "internalType": "address"
        }
      ]
    }
  ],
  "bytecode": {
    "object": "0x60c0346101cf57601f610f4438819003918201601f191683019291906001600160401b038411838510176101d45781606092849260409687528339810103126101cf578061004d83926101ea565b610059602083016101ea565b6001600160a01b03939092849161007091016101ea565b1680156101b757600080546001600160a01b031981168317825586519291908616907f8be0079c531659141344cd1fd0a4f28419497f9722a3daafe3b4186f6b6457e09080a38382161561016757506080521680156101235760a05251610d4590816101ff82396080518181816106930152818161071501528181610aa20152610b0b015260a0518181816102ae015281816103980152818161045a0152818161050b015281816107c401526108960152f35b815162461bcd60e51b815260206004820152601b60248201527f496e76616c696420656e74727920706f696e74206164647265737300000000006044820152606490fd5b62461bcd60e51b815260206004820152602560248201527f496e76616c69642077616c6c657420696d706c656d656e746174696f6e206164604482015264647265737360d81b6064820152608490fd5b8451631e4fbdf760e01b815260006004820152602490fd5b600080fd5b634e487b7160e01b600052604160045260246000fd5b51906001600160a01b03821682036101cf5756fe6040608081526004908136101561001557600080fd5b6000803560e01c80630396cb6014610839578063205c28781461076a57806341d9005814610739578063457dfe09146106ca5780636fa59bbc1461065a578063715018a6146105bd5780638da5cb5b1461056c578063a1aafc9e14610533578063b0d691fe146104c0578063bb9fe6bf14610409578063c23a5cea1461033d578063d0e30db01461026a578063f2fde38b1461017a5763ffa1ad74146100ba57600080fd5b3461017757807ffffffffffffffffffffffffffffffffffffffffffffffffffffffffffffffffc360112610177575080519080820182811067ffffffffffffffff8211176101495761014593508152600582527f302e302e31000000000000000000000000000000000000000000000000000000602083015251918291602083526020830190610a36565b0390f35b6041847f4e487b71000000000000000000000000000000000000000000000000000000006000525260246000fd5b80fd5b509190346102665760207ffffffffffffffffffffffffffffffffffffffffffffffffffffffffffffffffc3601126102665781359173ffffffffffffffffffffffffffffffffffffffff91828416809403610262576101d7610b9c565b8315610233575050600054827fffffffffffffffffffffffff0000000000000000000000000000000000000000821617600055167f8be0079c531659141344cd1fd0a4f28419497f9722a3daafe3b4186f6b6457e0600080a380f35b908460249251917f1e4fbdf7000000000000000000000000000000000000000000000000000000008352820152fd5b8480fd5b8280fd5b50918291827ffffffffffffffffffffffffffffffffffffffffffffffffffffffffffffffffc3601126103395773ffffffffffffffffffffffffffffffffffffffff7f00000000000000000000000000000000000000000000000000000000000000001691823b1561033457839060248351809581937fb760faf9000000000000000000000000000000000000000000000000000000008352309083015234905af190811561032b575061031b5750f35b61032490610936565b6101775780f35b513d84823e3d90fd5b505050fd5b5050fd5b50918291346103395760207ffffffffffffffffffffffffffffffffffffffffffffffffffffffffffffffffc3601126103395761037861090e565b610380610b9c565b73ffffffffffffffffffffffffffffffffffffffff807f000000000000000000000000000000000000000000000000000000000000000016803b1561040557859283602492865197889586947fc23a5cea00000000000000000000000000000000000000000000000000000000865216908401525af190811561032b575061031b5750f35b8580fd5b509182913461033957827ffffffffffffffffffffffffffffffffffffffffffffffffffffffffffffffffc36011261033957610443610b9c565b73ffffffffffffffffffffffffffffffffffffffff7f00000000000000000000000000000000000000000000000000000000000000001691823b1561033457839283918351809581937fbb9fe6bf0000000000000000000000000000000000000000000000000000000083525af190811561032b575061031b5750f35b50903461052f57817ffffffffffffffffffffffffffffffffffffffffffffffffffffffffffffffffc36011261052f576020905173ffffffffffffffffffffffffffffffffffffffff7f0000000000000000000000000000000000000000000000000000000000000000168152f35b5080fd5b50903461052f5760209073ffffffffffffffffffffffffffffffffffffffff61056461055e36610979565b90610aef565b915191168152f35b50903461052f57817ffffffffffffffffffffffffffffffffffffffffffffffffffffffffffffffffc36011261052f5773ffffffffffffffffffffffffffffffffffffffff60209254169051908152f35b503461017757807ffffffffffffffffffffffffffffffffffffffffffffffffffffffffffffffffc360112610177576105f4610b9c565b600073ffffffffffffffffffffffffffffffffffffffff81547fffffffffffffffffffffffff000000000000000000000000000000000000000081168355167f8be0079c531659141344cd1fd0a4f28419497f9722a3daafe3b4186f6b6457e08280a380f35b50903461052f57817ffffffffffffffffffffffffffffffffffffffffffffffffffffffffffffffffc36011261052f57610145906106b77f0000000000000000000000000000000000000000000000000000000000000000610bed565b9051918291602083526020830190610a36565b50903461052f57817ffffffffffffffffffffffffffffffffffffffffffffffffffffffffffffffffc36011261052f576020905173ffffffffffffffffffffffffffffffffffffffff7f0000000000000000000000000000000000000000000000000000000000000000168152f35b50903461052f5760209073ffffffffffffffffffffffffffffffffffffffff61056461076436610979565b90610a94565b509182913461033957807ffffffffffffffffffffffffffffffffffffffffffffffffffffffffffffffffc360112610339576107a461090e565b6107ac610b9c565b73ffffffffffffffffffffffffffffffffffffffff807f000000000000000000000000000000000000000000000000000000000000000016803b1561040557859283604492865197889586947f205c2878000000000000000000000000000000000000000000000000000000008652169084015260243560248401525af190811561032b575061031b5750f35b50919060207ffffffffffffffffffffffffffffffffffffffffffffffffffffffffffffffffc3601126102665782823563ffffffff811680910361052f5761087f610b9c565b73ffffffffffffffffffffffffffffffffffffffff7f00000000000000000000000000000000000000000000000000000000000000001693843b1561026657602490845195869384927f0396cb6000000000000000000000000000000000000000000000000000000000845283015234905af190811561032b5750610902575080f35b61090b90610936565b80f35b6004359073ffffffffffffffffffffffffffffffffffffffff8216820361093157565b600080fd5b67ffffffffffffffff811161094a57604052565b7f4e487b7100000000000000000000000000000000000000000000000000000000600052604160045260246000fd5b60407ffffffffffffffffffffffffffffffffffffffffffffffffffffffffffffffffc8201126109315767ffffffffffffffff9060043582811161093157816023820112156109315780600401359183831161094a5760405193601f84017fffffffffffffffffffffffffffffffffffffffffffffffffffffffffffffffe0908116603f011685019081118582101761094a5760405282845260248383010111610931578160009260246020930183860137830101529060243590565b919082519283825260005b848110610a805750507fffffffffffffffffffffffffffffffffffffffffffffffffffffffffffffffe0601f8460006020809697860101520116010190565b602081830181015184830182015201610a41565b600b90610acc605593610ac67f0000000000000000000000000000000000000000000000000000000000000000610bed565b92610cd3565b90602081519101209060405191604083015260208201523081520160ff81532090565b919091610afc8382610a94565b803b610b975750610b36610b2f7f0000000000000000000000000000000000000000000000000000000000000000610bed565b9382610cd3565b835160206000950185f59273ffffffffffffffffffffffffffffffffffffffff841691821561052f5781816020829351910182885af11561017757807f48df5b960943935df47b5ee244b72a9ea791c73f9d518287bf46d17c8bbe125991a2565b925050565b73ffffffffffffffffffffffffffffffffffffffff600054163303610bbd57565b60246040517f118cdaa7000000000000000000000000000000000000000000000000000000008152336004820152fd5b7fffffffffffffffffffffffffffffffffffffffff000000000000000000000000604051917f603d3d8160223d39730000000000000000000000000000000000000000000000602084015260601b1660298201527f60095155f3363d3d373d3d363d7f360894a13ba1a3210667c828492db98dca3e603d8201527f2076cc3735a920a3ca505d382bbc545af43d6000803e6038573d6000fd5b3d60605d8201527ef3000000000000000000000000000000000000000000000000000000000000607d820152605f81526080810181811067ffffffffffffffff82111761094a5760405290565b602081519101209060405190602082019283526040820152604081526060810181811067ffffffffffffffff82111761094a576040525190209056fea26469706673582212205cef0e84c20c60900e074d00474f9acea8826830d716d7e5c8dc4b3f10e6b8a764736f6c63430008170033",
    "linkReferences": {}
  },
  "methodIdentifiers": {
    "VERSION()": "ffa1ad74",
    "_WALLETIMPL()": "457dfe09",
    "addStake(uint32)": "0396cb60",
    "createWallet(bytes,bytes32)": "a1aafc9e",
    "deposit()": "d0e30db0",
    "entryPoint()": "b0d691fe",
    "getWalletAddress(bytes,bytes32)": "41d90058",
    "owner()": "8da5cb5b",
    "proxyCode()": "6fa59bbc",
    "renounceOwnership()": "715018a6",
    "transferOwnership(address)": "f2fde38b",
    "unlockStake()": "bb9fe6bf",
    "withdrawStake(address)": "c23a5cea",
    "withdrawTo(address,uint256)": "205c2878"
  },
  "id": 16
}